:040000000CEF00F011
:10000800FACF5CF1FBCF5DF1E9CF5EF1C5ED17F0FA
:1000180000EE00F010EE0EF016EC00F0000EF86E98
:10002800E2EF0DF0EE6AE550E150FCE1E250FAE152
:1000380012005DEC15F001012E6F000E01010101A7
:10004800356F01012E5101012F6F000E01010101D1
:10005800346F01012F5169EC1AF0B20E0101010150
:10006800346F3F0E0101356F54EC19F001012E6F0A
:10007800D30E01010101356F01012E5165EC1BF012
:10008800010101010A6F01012E6FD10E0101010169
:10009800356F01012E5165EC1BF0010101010B6F59
:1000A80001012E6FCF0E01010101356F01012E51A3
:1000B80065EC1BF0010101010C6F01012E6FD50EDB
:1000C80001010101356F01012E5165EC1BF00101A1
:1000D8000101356F0AC134F10BC133F10CC132F1A2
:1000E80001011E0E01010101306F0101010E010124
:1000F800316F8FEC0BF001012E6F010E0101010130
:10010800356F01012E5101012F6F000E0101010110
:10011800346F01012F5169EC1AF001011E0E010123
:100128000101346F0101010E0101356F54EC19F022
:1001380001012E6FC90E01010101356F01012E5118
:1001480065EC1BF0010101010D6F01012E6FC70E57
:1001580001010101356F01012E5165EC1BF0010110
:1001680001010E6F01012E6FC50E01010101356FEE
:1001780001012E5165EC1BF0010101010F6F010116
:100188002E6FCB0E01010101356F01012E5165EC77
:100198001BF001010101356F0DC134F10EC133F1BE
:1001A8000FC132F101011E0E01010101306F010181
:1001B800010E0101316F8FEC0BF001012E6F020E61
:1001C80001010101356F01012E5101012F6F000E50
:1001D80001010101346F01012F5169EC1AF001018D
:1001E8001E0E01010101346F0101010E0101356F7D
:1001F80054EC19F001012E6F040E01010101356F55
:1002080001012E5101012F6F000E01010101346F10
:1002180001012F5169EC1AF0E80E01010101346F58
:100228003F0E0101356F54EC19F001012E6F050ED8
:1002380001010101356F01012E5101012F6F000EDF
:1002480001010101346F01012F5169EC1AF09CEC96
:100258001BF03BEF01F089800950D8B436EF01F06C
:1002680038EF01F03BEF01F0000E33EF04F080A40B
:1002780040EF01F042EF01F02FEF01F00950D8B440
:1002880048EF01F04AEF01F04DEF01F0000E33EFB7
:1002980004F042EC1AF00009D8B455EF01F057EF1A
:1002A80001F063EF01F042EC1AF00009D8B45FEFF7
:1002B80001F061EF01F063EF01F065EF01F042EF4B
:1002C80001F001012E6F530E01010101366F01018A
:1002D8002E51C8EC14F00101170E01010101306F15
:1002E8000101010E0101316F6BEC17F00009D8A470
:1002F80080EF01F082EF01F085EF01F0000E33EF9F
:1003080004F042EC1AF00009D8A48DEF01F08FEF49
:1003180001F092EF01F0000E33EF04F001012E6FAF
:10032800310E01010101366F01012E51C8EC14F0A4
:10033800D0EC1AF001012E6F01012E05D8B4A7EFF9
:1003480001F0A9EF01F0ACEF01F0000E33EF04F07B
:1003580001011A0E01010101306F0101010E0101B5
:10036800316F6BEC17F00009D8A4BDEF01F0BFEFB7
:1003780001F0C2EF01F0000E33EF04F042EC1AF086
:100388000009D8A4CAEF01F0CCEF01F0CFEF01F0DB
:10039800000E33EF04F001012E6F320E010101014E
:1003A800366F01012E51C8EC14F0D0EC1AF001019F
:1003B8002E6F01012E05D8B4E4EF01F0E6EF01F04D
:1003C800E9EF01F0000E33EF04F00101160E010110
:1003D8000101306F0101010E0101316F6BEC17F063
:1003E8000009D8A4FAEF01F0FCEF01F0FFEF01F0EB
:1003F800000E33EF04F042EC1AF00009D8A407EF1E
:1004080002F009EF02F00CEF02F0000E33EF04F0F7
:1004180001012E6F330E01010101366F01012E51CA
:10042800C8EC14F00101100E01010101306F010147
:10043800010E0101316F6BEC17F00009D8A427EF0A
:1004480002F029EF02F02CEF02F0000E33EF04F077
:10045800D0EC1AF0080AD8A434EF02F036EF02F014
:1004680039EF02F0000E33EF04F042EC1AF0000905
:10047800D8A441EF02F043EF02F046EF02F0000E7D
:1004880033EF04F001012E6F340E01010101366FC4
:1004980001012E51C8EC14F0D0EC1AF0080AD8A4C7
:1004A80058EF02F05AEF02F05DEF02F0000E33EF62
:1004B80004F00101140E01010101306F0101010E68
:1004C8000101316F6BEC17F00009D8A46EEF02F050
:1004D80070EF02F073EF02F0000E33EF04F042EC1D
:1004E8001AF00009D8A47BEF02F07DEF02F080EF4C
:1004F80002F0000E33EF04F001012E6F350E0101FA
:100508000101366F01012E51C8EC14F00101150EDE
:1005180001010101306F0101010E0101316F6BEC26
:1005280017F00009D8A49BEF02F09DEF02F0A0EFAE
:1005380002F0000E33EF04F0D0EC1AF001010101D3
:10054800196FBEEF02F001012E6F000E01010101CB
:10055800196F01012E51C7EF02F001012E6F010E34
:1005680001010101196F01012E51C7EF02F0000EC0
:1005780033EF04F0010101011951010AE4E0030A13
:10058800ECE0BBEF02F042EC1AF00009D8A4CFEF80
:1005980002F0D1EF02F0D4EF02F0000E33EF04F0D6
:1005A800CD9017C12EF1F00E01012E170101D89040
:1005B8002E3101010101186F0101010117510F0BC3
:1005C800010101011B6F0101010118510101010124
:1005D8001B1101010101176F17C143F135EC1BF025
:1005E80001010101176F3B0E010101011765FFEFC2
:1005F80002F001EF03F004EF03F0000E33EF04F014
:10060800010101011AAF0BEF03F00DEF03F010EF3A
:1006180003F0000E33EF04F01AC12EF1F00E0101C1
:100628002E170101D8902E3101010101186F010127
:1006380001011A510F0B010101011B6F0101010199
:100648001851010101011B11010101011A6F1AC1A1
:1006580043F135EC1BF0010101011A6F170E01017E
:1006680001011A653AEF03F03CEF03F03FEF03F0A6
:10067800000E33EF04F016C12EF1F00E01012E1713
:100688000101D8902E3101010101186F010101010A
:1006980016510F0B010101011B6F010101011851D6
:1006A800010101011B1101010101166F16C143F17E
:1006B80035EC1BF001010101166F01010101165112
:1006C8000A0DF3CF1CF1F4CF1DF10101010110391E
:1006D8000F0B010101011B6F010101011B510101F8
:1006E80001011C27000E01011D236F0E01010101EC
:1006F8001C5D010E01011D59D8A085EF03F087EF9D
:1007080003F08AEF03F0000E33EF04F0010101015A
:100718001439F00B01010101186F010101011539AC
:100728000F0B010101011B6F0101010118510101AA
:1007380001011B1101010101436F35EC1BF001019F
:100748000101126F12C143F135EC1BF001010101E7
:10075800146F010101011551040B01010101136F0F
:10076800010101011351D8B4BCEF03F0BEEF03F04F
:10077800C6EF03F001012E6F010E01010101136F95
:1007880001012E5115C12EF1010E01012E17010193
:10079800D8902E3501010101191101010101126FD3
:1007A800010101011251020AD8A4DDEF03F0DFEFC5
:1007B80003F0E9EF03F001012E6F010E01010101C1
:1007C800196F01012E51F1EF03F001012E6F000E98
:1007D80001010101196F01012E5101012E6FC30E94
:1007E80001010101356F01012E5165EC1BF001017A
:1007F8000101116F19C136F101012E6FCC0E0101F3
:100808000101356F01012E51A9EC1BF011C139F11D
:1008180019C138F113C137F114C136F11CC134F1D3
:100828001DC135F11AC133F117C132F108C130F1D8
:1008380009C131F1EBEC06F0E7EC15F001012E6F80
:10084800000E01010101326F01012E5108C130F182
:1008580009C131F1C0EC10F0010E33EF04F01200C1
:10086800010101010A51D8B43CEF04F03EEF04F055
:100878004CEF04F00101326F010E010101010F6F0D
:10088800010132510FC10EF10EC10DF18BEF04F0D1
:10089800020E010101010825E96E000E01010101A6
:1008A8000921EA6E0250EF625CEF04F05FEF04F09A
:1008B800010E60EF04F0000E010101010D6F010E41
:1008C800010101010825E96E000E0101010109215C
:1008D800EA6E0150EF6273EF04F076EF04F0010E58
:1008E80077EF04F0000E010101010E6F005008C1FE
:1008F800E9FF09C1EAFFEF6284EF04F087EF04F033
:10090800010E88EF04F0000E010101010F6F0101D3
:1009180001010F51D8B493EF04F095EF04F0D5EF2F
:1009280004F008C1E9FF09C1EAFFEF500101326F85
:10093800010132390F0B01010101116F0101326F01
:10094800010E01010101356F010132510101336FBF
:10095800460E01010101346F0101335169EC1AF0AF
:1009680011C134F1ABEC08F00101326F010E010145
:100978000101356F010132510101336F540E01013C
:100988000101346F0101335169EC1AF008C1E9FF24
:1009980009C1EAFFEF500F0B01010101346FABEC05
:1009A80008F0010101010E51D8B4DDEF04F0DFEFCA
:1009B80004F02BEF05F0010E010101010825E96E95
:1009C800000E010101010921EA6EEF500101326FA9
:1009D800010132390F0B01010101116F0101326F61
:1009E800010E01010101356F010132510101336F1F
:1009F800230E01010101346F0101335169EC1AF032
:100A080011C134F1ABEC08F00101326F010E0101A4
:100A18000101356F010132510101336F310E0101BE
:100A28000101346F0101335169EC1AF0010E010123
:100A380001010825E96E000E010101010921EA6E94
:100A4800EF500F0B01010101346FABEC08F001010D
:100A580001010D51D8B433EF05F035EF05F03BEF48
:100A680006F001010B0E01010101356F0101010EB4
:100A78000101366F020E010101010825E96E000E21
:100A8800010101010921EA6EEF5001010101346FF2
:100A98000EEC17F0010101010C6F010101010C3985
:100AA8000F0B01010101116F0101326F010E0101EC
:100AB8000101356F010132510101336F000E01014F
:100AC8000101346F0101335169EC1AF00101010190
:100AD8001151D8B472EF05F074EF05F07AEF05F014
:100AE80011C134F1ABEC08F084EF05F00101326F6D
:100AF8000A0E01010101346F01013251ABEC08F01B
:100B08000101326F010E01010101356F01013251FE
:100B18000101336F0E0E01010101346F01013351E0
:100B280069EC1AF0010101010C510F0B01010101DF
:100B3800346FABEC08F00101326F020E01010101C4
:100B4800356F010132510101336F640E010101015A
:100B5800346F0101335169EC1AF00101326F0C0E48
:100B680001010101346F01013251010101010B51F1
:100B7800D8B4C1EF05F0C3EF05F0CBEF05F00101E4
:100B8800326F0D0E01010101346F01013251ABECDE
:100B980008F00101326F050E01010101356F0101F5
:100BA80032510101336F080E01010101346F010157
:100BB800335169EC1AF0050E010101010825E96EAF
:100BC800000E010101010921EA6EEF500101326FA7
:100BD800010132050B0DAA0EF32401010101456F35
:100BE8000101466B3C0E010146230101120E010171
:100BF8000101436F0101010E0101446F18EC1AF065
:100C08000101120E01010101346F0101010E010100
:100C1800356F54EC19F00101326F060E0101010124
:100C2800356F010132510101336F080E01010101D5
:100C3800346F0101335169EC1AF00101120E010100
:100C48000101366F0101010E0101376F08C134F14E
:100C580009C135F1C9EC0CF00101120E01010101C5
:100C6800346F0101010E0101356F54EC19F00101D7
:100C780001010A51D8B443EF06F045EF06F0EAEF58
:100C880006F00101326F010E01010101356F01010A
:100C980032510101336F1C0E01010101346F010152
:100CA800335169EC1AF00101326F0B0E0101010199
:100CB800346F01013251ABEC08F00101326F010EC3
:100CC80001010101356F010132510101336F3F0EFE
:100CD80001010101346F0101335169EC1AF001017E
:100CE800326F0B0E01010101346F01013251ABEC7F
:100CF80008F00101326FCD0E01010101356F0101CC
:100D0800325165EC1BF001010101116F0101326FD5
:100D1800C30E01010101356F0101325165EC1BF071
:100D280001010101106F010101011051FC0F0101C6
:100D38000101106F0101326F000E01010101356FD1
:100D4800010132510101336F6D0E01010101346F50
:100D58000101335169EC1AF0010101011151D8B4B4
:100D6800B8EF06F0BAEF06F0D3EF06F00101010183
:100D78001051040D7A0E0101326F3F0E336FF3509C
:100D880001013227E86AF3BEE8680101332332C162
:100D980034F133C135F154EC19F0EAEF06F00101F2
:100DA80001011051040D960E0101326F3F0E336F91
:100DB800F35001013227E86AF3BEE86801013323E2
:100DC80032C134F133C135F154EC19F0120001018C
:100DD80001013851010139C13EF101013F6B0101A7
:100DE8003E5F000E3F5B010133C140F10101416BE1
:100DF80001014151800A0101426F01013E51010187
:100E0800405D01013F51800A01014259D8B00FEFFE
:100E180007F011EF07F067EF07F0180E0101010165
:100E2800556F000E0101566F010101013851010192
:100E380033C13EF101013F6B01013E27000E3F2304
:100E4800180E01013E27000E3F230101010139510F
:100E580001013E5D01010101536F01013F51D8A01D
:100E68003F050101546F9AEC13F001010101535140
:100E780001010101336F0101010134053511D8A4C5
:100E880048EF07F04AEF07F060EF07F06E0E010138
:100E98000101346F010E0101356F01010101365165
:100EA800D8B459EF07F05BEF07F05EEF07F00101E8
:100EB8000101360765EF07F0010101013407D8A0E9
:100EC800350770EF07F001010101385101010101F7
:100ED800395D01010101335F0101010132513B0A12
:100EE800D8A479EF07F07BEF07F0BAEF07F001011C
:100EF8003E6F000E01010101326F01013E510101F7
:100F080001013351170AD8A48CEF07F08EEF07F0D0
:100F1800B5EF07F001013E6F000E01010101336FCB
:100F280001013E510101010135056E0ED8B4341995
:100F3800D8A4A1EF07F0A3EF07F0AFEF07F0010E79
:100F480001010101346F000E0101356F010101013A
:100F5800362BB3EF07F001010101344B352BB8EF05
:100F680007F001010101332BBDEF07F00101010179
:100F7800322B000E010101013C6F000E01013D6F93
:100F8800C6EF07F0010101013751020D010101010E
:100F98003C5101013E6F010101013D5101013F6FCB
:100FA80001013C4B3D2BD89001013E37D8900101FF
:100FB8003E3701013E51F3240101406F3D0E01010E
:100FC8004025F66EF76A3D0EF7220900F5CF41F18C
:100FD8000900F5CF42F10101010134510101415DE0
:100FE80001010101355101014259D8A0FEEF07F076
:100FF80000EF08F0C6EF07F0010101013C07D8A097
:101008003D07010101013751020D3CC13EF1D89065
:1010180001013E37D89001013E3701013E51F324CA
:1010280001013F6FFC0E01013F273D0E01013F25E5
:10103800F66EF76A3D0EF7220900F5CF40F1090078
:10104800F5CF41F10101405101010101345D010178
:1010580001013A6F010141510101010135590101B5
:101068003B6F30C1E9FF31C1EAFF000EEF6E010EA0
:10107800010101013025E96E000E01010101312154
:10108800EA6E32C143F1EBEC19F0EF6E020E01018A
:1010980001013025E96E000E010101013121EA6EDE
:1010A80033C143F1EBEC19F0EF6E050E01010101BC
:1010B8003025E96E000E010101013121EA6ED00EE2
:1010C80001010101362501010101476F0101486B4A
:1010D800070E01014823010101013AC145F101014F
:1010E8000101466B3CC143F13DC144F1E2EC0FF014
:1010F800EF6E030E010101013025E96E000E0101BA
:1011080001013121EA6E3AC143F1EBEC19F0EF6EBF
:10111800040E010101013025E96E000E01010101F3
:101128003121EA6E3CC143F1EBEC19F0EF6E060E8B
:10113800010101013025E96E000E01010101312193
:10114800EA6E36C143F1EBEC19F0EF6E12000DEFC9
:101158000AF00101396F0D0E01010101366F01011D
:1011680039510101396F030E01010101356F010188
:101178003951CD0E01010101376F3D0E0101386F64
:1011880039EF0AF00101396F0D0E01010101366FC7
:10119800010139510101396F030E01010101356F58
:1011A80001013951F40E01010101376F3D0E0101B2
:1011B800386F39EF0AF00101396F0D0E0101010195
:1011C800366F010139510101396F030E0101010127
:1011D800356F010139511B0E01010101376F3E0EB8
:1011E8000101386F39EF0AF00101396F0D0E010165
:1011F8000101366F010139510101396F030E0101F7
:101208000101356F01013951420E01010101376FAA
:101218003E0E0101386F39EF0AF00101396F0D0EEA
:1012280001010101366F010139510101396F030EC6
:1012380001010101356F01013951690E01010101F7
:10124800376F3E0E0101386F39EF0AF00101396F2F
:101258000D0E01010101366F010139510101396F8C
:10126800030E01010101356F01013951900E010191
:101278000101376F3E0E0101386F39EF0AF00101A5
:10128800396F0D0E01010101366F0101395101015C
:10129800396F030E01010101356F01013951B70E94
:1012A80001010101376F3E0E0101386F39EF0AF075
:1012B8000101396F0D0E01010101366F010139512C
:1012C8000101396F030E01010101356F0101395127
:1012D800DE0E01010101376F3E0E0101386F39EF53
:1012E8000AF00101396F0D0E01010101366F01018C
:1012F80039510101396F030E01010101356F0101F7
:101308003951050E01010101376F3F0E0101386F98
:1013180039EF0AF00101396F0D0E01010101366F35
:10132800010139510101396F030E01010101356FC6
:10133800010139512C0E01010101376F3F0E0101E6
:10134800386F39EF0AF00101396F0D0E0101010103
:10135800366F010139510101396F030E0101010195
:10136800356F01013951530E01010101376F3F0EED
:101378000101386F39EF0AF00101396F060E0101DA
:101388000101366F010139510101396F030E010165
:101398000101356F01013951D60E01010101376F85
:1013A8003F0E0101386F39EF0AF00101396F170E4E
:1013B80001010101366F010139510101396F020E36
:1013C80001010101356F01013951710E010101015E
:1013D800376F3D0E0101386F39EF0AF00101396F9F
:1013E800170E01010101366F010139510101396FF1
:1013F800020E01010101356F010139519F0E0101F2
:101408000101376F3D0E0101386F39EF0AF043EFE4
:101418000AF0010101013451000A01E19AD6010ADA
:1014280001E1B0D6030A01E1C6D6010A01E1DCD622
:10143800070A01E1F2D6010A01E108D7030A01E12E
:101448001ED7010A01E134D70F0A01E14AD7010A80
:1014580001E160D7030A01E176D7010A8DE0070AA6
:10146800A4E0010ABBE00BEF0AF035C13DF136C13B
:101478003CF137C13AF138C13BF133EC14F01200BA
:10148800320E010101010C6F000E01010D6F6AECB3
:1014980018F001010A6F000E01010101096F010135
:1014A8000A51310E0101010109655DEF0AF05FEF94
:1014B8000AF061EF0AF083EF0AF0640E01010101FE
:1014C8000C6F000E01010D6F6AEC18F081A46FEF2C
:1014D8000AF071EF0AF076EF0AF0010E0D6E8990AE
:1014E8008EEF0BF001010101092B310E0101010101
:1014F800096581EF0AF083EF0AF061EF0AF089903D
:101508005DEC15F001010A6F000E01010101356F54
:1015180001010A5101010B6F000E01010101346F35
:1015280001010B5169EC1AF0C40E01010101346F7D
:101538003F0E0101356F54EC19F001010A6FC30E1B
:1015480001010101356F01010A5165EC1BF0010130
:101558000101086F01010A6F000E01010101096F05
:1015680001010A51060E010101010965BEEF0AF0E9
:10157800C0EF0AF0C2EF0AF0F6EF0AF0010101012C
:10158800092901010101356F01010A6F130E0101DB
:101598000101346F01010A5169EC1AF001010101DE
:1015A80009510A0DF70E01010A6F3C0E0B6FF3503B
:1015B80001010A27E86AF3BEE86801010B230AC1A2
:1015C80034F10BC135F154EC19F001010101092B7B
:1015D800060E010101010965F4EF0AF0F6EF0AF0C1
:1015E800C2EF0AF0F8EF0AF081A4FDEF0AF0FFEF6E
:1015F8000AF0F8EF0AF0320E010101010C6F000E3B
:1016080001010D6F6AEC18F008C10CF1B0EC16F08E
:10161800320E010101010C6F000E01010D6F6AEC21
:1016280018F017EF0BF081B41CEF0BF01EEF0BF066
:1016380017EF0BF0320E010101010C6F000E0101D2
:101648000D6F6AEC18F001010A6F000E010101012B
:10165800096F01010A51310E01010101096537EFD6
:101668000BF039EF0BF03BEF0BF072EF0BF0640E61
:10167800010101010C6F000E01010D6F6AEC18F0F9
:1016880081A449EF0BF04BEF0BF065EF0BF0010174
:101698000101082B0A0E0101086555EF0BF057EF01
:1016A8000BF05FEF0BF001010A6F040E010101015D
:1016B800086F01010A5108C10CF1B0EC16F072EF85
:1016C8000BF001010101092B310E0101010109652E
:1016D80070EF0BF072EF0BF03BEF0BF0310E0101E6
:1016E800010109657AEF0BF07CEF0BF07EEF0BF050
:1016F80080EF0BF00CEF0BF008C136F101010A6F17
:10170800C20E01010101356F01010A51A9EC1BF05C
:10171800010E0D6E12000101386F000E010101016A
:10172800376F0101385132C138F1F00E0101381715
:10173800010138390F0B01010101366F0101010167
:101748003651D8B4AAEF0BF0ACEF0BF0C1EF0BF0A9
:10175800010101013751010101013025E96E010143
:10176800000E010101013121EA6E0101010136512A
:101778003009EF6E01010101372B010101013751D9
:10178800010101013025E96E0101000E010101018D
:101798003121EA6E0101010132510F0B3009EF6E60
:1017A80001010101372B010101013751010101013B
:1017B8003025E96E0101000E010101013121EA6EB7
:1017C8002F0EEF6E01010101372B33C138F1F00EF6
:1017D80001013817010138390F0B01010101366F7A
:1017E800010101013651D8B4FCEF0BF0FEEF0BF00C
:1017F80013EF0CF0010101013751010101013025FE
:10180800E96E0101000E010101013121EA6E0101B9
:10181800010136513009EF6E01010101372B010139
:1018280001013751010101013025E96E0101000E66
:10183800010101013121EA6E0101010133510F0B50
:101848003009EF6E01010101372B01010101375108
:10185800010101013025E96E0101000E01010101BC
:101868003121EA6E200EEF6E01010101372B34C1E0
:1018780038F1F00E01013817010138390F0B010159
:101888000101366F010101013751010101013025C4
:10189800E96E0101000E010101013121EA6E010129
:1018A800010136513009EF6E01010101372B0101A9
:1018B80001013751010101013025E96E0101000ED6
:1018C800010101013121EA6E0101010134510F0BBF
:1018D8003009EF6E01010101372B01010101375178
:1018E800010101013025E96E0101000E010101012C
:1018F8003121EA6E3A0EEF6E01010101372B35C135
:1019080038F1F00E01013817010138390F0B0101C8
:101918000101366F01010101375101010101302533
:10192800E96E0101000E010101013121EA6E010198
:10193800010136513009EF6E01010101372B010118
:1019480001013751010101013025E96E0101000E45
:10195800010101013121EA6E0101010135510F0B2D
:101968003009EF6E01010101372B010101013751E7
:10197800010101013025E96E0101000E010101019B
:101988003121EA6E000EEF6E1200040E0101010112
:101998003425E96E000E010101013521EA6EEF5090
:1019A80001010101436F35EC1BF00101426F010198
:1019B80042050A0D320EF32401010101456F0101B0
:1019C800466B3C0E0101462336C143F137C144F151
:1019D80018EC1AF00101426F000E01010101396F84
:1019E8000101425101013A0E010101013925E96E57
:1019F800EA6A0101010EEA22200EEF6E01010101DF
:101A0800392B030E010101013425E96E000E010195
:101A180001013521EA6EEF500101426FF00E01011C
:101A28004217010142390F0B01010101386F010111
:101A380001013851D8B423EF0DF025EF0DF037EF41
:101A48000DF001013A0E010101013925E96EEA6A3A
:101A58000101010EEA220101010138513009EF6E3E
:101A680001010101392B01013A0E0101010139255A
:101A7800E96EEA6A0101010EEA22030E0101010181
:101A88003425E16E000E010101013521E26EE750B7
:101A98000F0B3009EF6E01010101392B01013A0EDC
:101AA800010101013925E96EEA6A0101010EEA2204
:101AB8002C0EEF6E01010101392B01013A0E0101D3
:101AC80001013925E96EEA6A0101010EEA22200EB8
:101AD800EF6E01010101392B01013A0E01010101EB
:101AE8003925E96EEA6A0101010EEA22000EEF6E5D
:101AF80001013A0E01010101456F0101010E0101C9
:101B0800466F36C143F137C144F1E3EC18F00101E7
:101B1800426F320E010101013A6F01014251010188
:101B2800426F300E010101013B6F01014251060E67
:101B3800010101013425E96E000E01010101352181
:101B4800EA6EEF500101426FF00E010142170101E8
:101B580042390F0B3009010101013C6F060E0101EA
:101B680001013425E96E000E010101013521EA6EFB
:101B7800EF500F0B3009010101013D6F0101426F68
:101B8800200E010101013E6F010142510101426F26
:101B9800000E010101013F6F0101425101013A0E9E
:101BA80001010101456F0101010E0101466F36C1B6
:101BB80043F137C144F1E3EC18F01200D3508F0B16
:101BC8006009D36EFC0ED316000EC26E0F0EC16EE6
:101BD800070EB46E000EB56E000EBD6E000EBA6E26
:101BE800000E806E000E816E000E826EC40E926E24
:101BF800040E936E9468F19E000E0D6EF2EC0EF0DA
:101C080018EC18F005EC1BF05DEC15F00101000E66
:101C180001010101086F0101010E0101096F4CEC7E
:101C280016F00101076F010E010101010A6F0101A0
:101C380007510101000E01010101086F0101010EA8
:101C48000101096F34EC04F00101000E01010101EA
:101C5800086F0101010E0101096F4CEC16F00050EC
:101C6800010101010019D8B43CEF0EF03EEF0EF06F
:101C7800E4EF0EF00101076F000E010101010A6F88
:101C8800010107510101000E01010101086F010165
:101C9800010E0101096F34EC04F0070E0101010186
:101CA8000C6F000E01010D6F0101000E0101010111
:101CB8000A6F0101010E01010B6F000E0101010104
:101CC800086F000E0101096FBCEC19F00101010158
:101CD8000005D8A472EF0EF074EF0EF08DEF0EF041
:101CE800010101010105D8A47CEF0EF07EEF0EF092
:101CF8008DEF0EF002C143F135EC1BF0030B030A24
:101D0800D8A489EF0EF08BEF0EF08DEF0EF0010ED8
:101D18000D6E0D50D8B493EF0EF095EF0EF0E4EF82
:101D28000EF0000E0D6E0101000E01010101086F99
:101D38000101010E0101096F1DEC00F00009D8B482
:101D4800A8EF0EF0AAEF0EF0B5EF0EF00101000EAD
:101D580001010101126F0101010E0101136FF7EC7E
:101D680012F089905DEC15F00101076F010E010179
:101D780001010A6F010107510101000E0101010172
:101D8800086F0101010E0101096F34EC04F0070E20
:101D9800010101010C6F000E01010D6F0101000E20
:101DA800010101010A6F0101010E01010B6F000E13
:101DB80001010101086F000E0101096FBCEC19F067
:101DC80081B4E9EF0EF0EBEF0EF0EEEF0EF0898044
:101DD80044EC0AF028EF0EF00CEF00F0B6EC1BF024
:101DE8000101106F000E01010101366F0101105150
:101DF8000101116F8E0E01010101356F01011151B1
:101E0800A9EC1BF00101106FA50E01010101366F4D
:101E1800010110510101116F900E01010101356F8F
:101E280001011151A9EC1BF00101106FC10E010154
:101E38000101356F0101105165EC1BF00101010131
:101E4800086F010101010851950AD8B42EEF0FF06F
:101E580030EF0FF0E1EF0FF00101106F000E0101FC
:101E68000101366F010110510101116F800E01014E
:101E78000101356F01011151A9EC1BF00101106F2F
:101E8800950E01010101366F010110510101116F19
:101E9800C00E01010101356F01011151A9EC1BF0C0
:101EA8000101106F050E01010101366F010110518A
:101EB8000101116FC20E01010101356F01011151BC
:101EC800A9EC1BF00101106F000E01010101096F5F
:101ED800010110510101106F000E010101010A6F8B
:101EE800010110510101106F000E010101010B6F7A
:101EF800010110510101106F010E010101010C6F68
:101F0800010110510101106F010E010101010D6F56
:101F1800010110510101106F050E010101010E6F41
:101F2800010110510101106F100E010101010F6F25
:101F3800010110510101106F000E01010101366FFE
:101F4800010110510101116FCC0E01010101356F22
:101F580001011151A9EC1BF00101090E0101010158
:101F6800126F0101010E0101136FF7EC12F001016C
:101F7800106F000E01010101326F010110510101C2
:101F8800090E01010101306F0101010E0101316FDC
:101F9800C0EC10F00101106F010E01010101326F58
:101FA800010110510101090E01010101306F010108
:101FB800010E0101316FC0EC10F0120001010101A6
:101FC8004451800A800F030ED8B4435DD8B0EFEFB8
:101FD8000FF0F1EF0FF00BEF10F00C0E0101010103
:101FE800432501010101436F000E01010101442154
:101FF8000101446FFF0E01010101472501010101A3
:10200800476FFF0E0101010148210101486F060ECB
:1020180001010101556F000E0101566F010E01010A
:102028000101432501010101536F000E0101010166
:1020380044210101546FA9EC18F053C153F154C164
:1020480054F10A0E01010101556F000E0101566F8E
:102058004AEC12F0D89001010101433501014B6FA0
:1020680001010101443501014C6F01010101535186
:1020780001014B2501014D6F01010101545101017D
:102088004C2101014E6F040E01010101556F000E34
:102098000101566F47C153F148C154F14AEC12F09F
:1020A80001010101535101014D2501014F6F01014A
:1020B8000101545101014E210101506F010101013B
:1020C800455101014F2701010101465101015023EA
:1020D80001010101475101014F2701010101485147
:1020E80001015023640E01010101556F000E010129
:1020F800566F47C153F148C154F14AEC12F001013F
:102108000101535101014F5D0101516F01010101AD
:102118005451010150590101526F900E0101010102
:10212800556F010E0101566F47C153F148C154F173
:102138004AEC12F00101010153510101512501013D
:102148000101536F010101015451010152210101A3
:10215800546F070E01010101556F000E0101566F02
:102168009AEC13F053C149F154C14AF1010101013C
:102178004929BFEF10F01200010101013251D8B412
:10218800C8EF10F0CAEF10F02CEF11F0040E0101A7
:1021980001013025E96E000E010101013121EA6ECD
:1021A800EF5001010101366F0101336FCE0E0101BD
:1021B8000101356F01013351A9EC1BF0030E010138
:1021C80001013025E96E000E010101013121EA6E9D
:1021D800EF5001010101366F0101336FD00E01018B
:1021E8000101356F01013351A9EC1BF0020E010109
:1021F80001013025E96E000E010101013121EA6E6D
:10220800EF5001010101366F0101336FD20E010158
:102218000101356F01013351A9EC1BF0010E0101D9
:1022280001013025E96E000E010101013121EA6E3C
:10223800EF5001010101366F0101336FD40E010126
:102248000101356F01013351A9EC1BF08CEF11F03E
:10225800040E010101013025E96E000E01010101A2
:102268003121EA6EEF5001010101366F0101336F30
:10227800C40E01010101356F01013351A9EC1BF0B6
:10228800030E010101013025E96E000E0101010173
:102298003121EA6EEF5001010101366F0101336F00
:1022A800C60E01010101356F01013351A9EC1BF084
:1022B800020E010101013025E96E000E0101010144
:1022C8003121EA6EEF5001010101366F0101336FD0
:1022D800C80E01010101356F01013351A9EC1BF052
:1022E800010E010101013025E96E000E0101010115
:1022F8003121EA6EEF5001010101366F0101336FA0
:10230800CA0E01010101356F01013351A9EC1BF01F
:10231800120001013C6F070E01010101386F010134
:102328003C5101013C6F090E01010101376F0101A8
:102338003C5101013C6F130E01010101366F01018F
:102348003C5101013C6F150E01010101356F01017E
:102358003C5101013C6F1F0E01010101396F010160
:102368003C5101013C6F210E010101013A6F01014D
:102378003C5101013C6F000E010101013B6F01015D
:102388003C5180A4CAEF11F0CCEF11F027EF12F006
:102398008980010101013851010101013B5DD8A08B
:1023A800D8EF11F0DAEF11F0EAEF11F001010101B5
:1023B8003B5101010101375DD8A0E5EF11F0E7EFCE
:1023C80011F0EAEF11F0010E49EF12F001010101DD
:1023D8003651010101013B5DD8A0F5EF11F0F7EF8F
:1023E80011F007EF12F0010101013B510101010158
:1023F800355DD8A002EF12F004EF12F007EF12F0EB
:10240800020E49EF12F001010101395101010101E8
:102418003B5DD8A012EF12F014EF12F024EF12F087
:10242800010101013B51010101013A5DD8A01FEFF3
:1024380012F021EF12F024EF12F0040E49EF12F01F
:10244800080E49EF12F08990F2949F0ED66E000E96
:10245800D76E2FEF12F0F2A434EF12F036EF12F02D
:102468002FEF12F0010101013B2B01013B05010196
:1024780001013A6142EF12F044EF12F047EF12F017
:10248800080E49EF12F0C5EF11F0120001015B6F61
:10249800000E01010101586F01015B5101010101A9
:1024A80056AF59EF12F05BEF12F06AEF12F001012C
:1024B8000101556D0101561FD8B0562B01015B6F04
:1024C800010E01010101586F01015B510101010178
:1024D80054AF71EF12F073EF12F07EEF12F00101BA
:1024E8000101536D0101541FD8B0542B010E010195
:1024F8000101581B000E01010101596F000E010175
:102508005A6F0101010156515511D8B48EEF12F0DE
:1025180090EF12F0DFEF12F001015B6F010E010185
:102528000101576F01015B51A3EF12F00101D8902F
:10253800010155370101563701010101572B0101EE
:10254800010156AFAAEF12F0ACEF12F09AEF12F0B9
:102558000101D8900101593701015A3701010101E0
:10256800555101010101535D01010101565101015C
:1025780001015459D8A0C3EF12F0C5EF12F0D4EFFF
:1025880012F001010101555101010101535F0101DF
:102598000101565101010101545B010101015981F9
:1025A8000101D890010156330101553301010101A0
:1025B800572FACEF12F0010101015851D8B4E7EFE1
:1025C80012F0E9EF12F0F0EF12F001010101596D7C
:1025D80001015A1FD8B05A2B59C153F15AC154F1AD
:1025E800F6EF12F0120012C1E9FF13C1EAFFEF5033
:1025F80001010101366F0101146F800E0101010113
:10260800356F01011451A9EC1BF0010E0101010104
:102618001225E96E000E010101011321EA6EEF5047
:1026280001010101366F0101146F820E01010101E0
:10263800356F01011451A9EC1BF0020E01010101D3
:102648001225E96E000E010101011321EA6EEF5017
:1026580001010101366F0101146F840E01010101AE
:10266800356F01011451A9EC1BF0030E01010101A2
:102678001225E96E000E010101011321EA6EEF50E7
:1026880001010101366F0101146F860E010101017C
:10269800356F01011451A9EC1BF0040E0101010171
:1026A8001225E96E000E010101011321EA6EEF50B7
:1026B80001010101366F0101146F880E010101014A
:1026C800356F01011451A9EC1BF0050E0101010140
:1026D8001225E96E000E010101011321EA6EEF5087
:1026E80001010101366F0101146F8A0E0101010118
:1026F800356F01011451A9EC1BF0060E010101010F
:102708001225E96E000E010101011321EA6EEF5056
:1027180001010101366F0101146F8C0E01010101E5
:10272800356F01011451A9EC1BF012000101596F1A
:10273800000E01010101576F010159510101010109
:1027480054AFA9EF13F0ABEF13F0BAEF13F0010198
:102758000101536D0101541FD8B0542B0101596F69
:10276800010E01010101576F0101595101010101D8
:1027780056AFC1EF13F0C3EF13F0CAEF13F0010126
:102788000101556D0101561FD8B0562B01010101F9
:1027980056515511D8B4D3EF13F0D5EF13F01BEF02
:1027A80014F00101596F010E01010101586F010177
:1027B8005951E8EF13F00101D89001015537010193
:1027C800563701010101582B0101010156AFEFEF06
:1027D80013F0F1EF13F0DFEF13F001010101555190
:1027E80001010101535D010101015651010101017E
:1027F8005459D8A002EF14F004EF14F010EF14F0BD
:1028080001010101555101010101535F010101015C
:10281800565101010101545B0101D8900101563361
:102828000101553301010101582FF1EF13F00101A6
:1028380001015751D8B423EF14F025EF14F02CEF11
:1028480014F001010101536D0101541FD8B0542B3C
:1028580053C153F154C154F132EF14F01200080679
:102868000AC03EF107C03FF10101426F000E0101AD
:102878000101416F01014251BAEF14F0082A070E15
:10288800086449EF14F04BEF14F04FEF14F0070E03
:10289800086EC7EF14F03FC144F108C043F11DECC6
:1028A8001BF03FC144F13EC143F14DEC1BF03EC16A
:1028B8000AF03FC107F00101426F000E010101015A
:1028C800406F01014251AAEF14F007C048F101011D
:1028D800426F010E01010101476F010142510101DF
:1028E8003AC1F6FF01013BC1F7FF08000101F5CF2E
:1028F80046F18FEC1AF0010101013A4B3B2B0A2AF1
:102908003F0E0A648AEF14F08CEF14F0A7EF14F06E
:10291800076691EF14F093EF14F0A5EF14F0000E92
:102928000A6E010E076E07C044F10AC043F14DEC70
:102938001BF007C044F108C043F11DEC1BF0A7EFE2
:1029480014F0C7EF14F001010101402B010101014E
:102958003C5101010101405DD8A0B5EF14F0B7EF7B
:1029680014F069EF14F001010101412B010101018B
:102978003D5101010101415DD8A0C5EF14F0C7EF39
:1029880014F042EF14F01200200E01010101365F2D
:10299800000E01010101396F000E01013A6F060EA8
:1029A80001010101395D000E01013A59D8A0DFEF9C
:1029B80014F0E1EF14F0E3EF14F05CEF15F001010F
:1029C80001013651060DF20EF32401013B6F390E59
:1029D800F42001013C6F01010101395101013B253E
:1029E80001010101376F010101013A5101013C2147
:1029F8000101386F07C048F101013B6F010E010169
:102A08000101476F01013B51010137C1F6FF010187
:102A180038C1F7FF08000101F5CF46F18FEC1AF035
:102A28000A2A3F0E0A641BEF15F01DEF15F04AEF56
:102A380015F0000E0A6E0750D8B425EF15F027EFF1
:102A480015F036EF15F0000E076E082A070E086419
:102A580030EF15F032EF15F034EF15F0000E086E78
:102A680038EF15F0010E076E07C044F101013B6F06
:102A7800000E01010101436F01013B514DEC1BF0B8
:102A880007C044F108C043F11DEC1BF0010101012E
:102A9800394B3A2B060E01010101395D000E010187
:102AA8003A59D8A05AEF15F05CEF15F0E3EF14F09F
:102AB80012000101336F000E01010101326F0101A3
:102AC8003351010E0101010132656DEF15F06FEF11
:102AD80015F071EF15F0E6EF15F00101336F000EF8
:102AE80001010101316F01013351070E010101019B
:102AF800316581EF15F083EF15F085EF15F0D9EF0B
:102B080015F032C144F131C143F11DEC1BF032C163
:102B180044F10101336F000E01010101436F01010E
:102B280033514DEC1BF00101336F000E010101011F
:102B3800306F010133513F0E010101013065A7EFEC
:102B480015F0A9EF15F0ABEF15F0CCEF15F032C189
:102B580048F10101336F010E01010101476F0101C5
:102B680033510101346F000E01010101466F01016B
:102B780034518FEC1AF001010101302B3F0E010195
:102B880001013065CAEF15F0CCEF15F0ABEF15F089
:102B980001010101312B070E010101013165D7EF58
:102BA80015F0D9EF15F085EF15F001010101322B71
:102BB800010E010101013265E4EF15F0E6EF15F0B1
:102BC80071EF15F012000101346FC50E010101010A
:102BD800356F0101345165EC1BF001010101336FC0
:102BE8000101346FC70E01010101356F0101345134
:102BF80065EC1BF001010101306F0101346FC90E52
:102C080001010101356F0101345165EC1BF001012F
:102C18000101316F0101346FCB0E01010101356FE4
:102C28000101345165EC1BF001010101326F33C120
:102C380036F10101346FCE0E01010101356F01013A
:102C48003451A9EC1BF030C136F10101346FD00EBC
:102C580001010101356F01013451A9EC1BF031C1AB
:102C680036F10101346FD20E01010101356F010106
:102C78003451A9EC1BF032C136F10101346FD40E86
:102C880001010101356F01013451A9EC1BF012005B
:102C9800BFEC1BF001010A6FBF0E01010101376F84
:102CA80001010A518CEC19F01CEC19F008C1E9FF7C
:102CB80009C1EAFFEF6E010E010101010825E96E65
:102CC800000E010101010921EA6E1CEC19F0EF6EFA
:102CD800020E010101010825E96E000E0101010142
:102CE8000921EA6E1CEC19F0EF6E030E01010101D7
:102CF8000825E96E000E010101010921EA6E1CECAC
:102D080019F0EF6E040E010101010825E96E000EAD
:102D1800010101010921EA6E1CEC19F0EF6E050EA4
:102D2800010101010825E96E000E010101010921D7
:102D3800EA6E1CEC19F0EF6E060E01010101082580
:102D4800E96E000E010101010921EA6E1CEC19F07F
:102D5800EF6EBBEC1BF0120001010E6F000E0101BB
:102D680001010D6F01010E51060E010101010D65F2
:102D7800C0EF16F0C2EF16F0C4EF16F00DEF17F023
:102D8800010101010D2901010101356F01010E6FDA
:102D9800000E01010101346F01010E5169EC1AF0B6
:102DA800FC0E010101010C2501010E6F01010F6BE1
:102DB800FF0E01010F23010101010D5101010E193F
:102DC8000F11D8A4EAEF16F0ECEF16F0F7EF16F0B3
:102DD800FA0E01010101346F3F0E0101356F54EC09
:102DE80019F000EF17F0F60E01010101346F3F0EE4
:102DF8000101356F54EC19F0010101010D2B060E8C
:102E0800010101010D650BEF17F00DEF17F0C4EF8D
:102E180016F0120034C143F135EC1BF00101010139
:102E2800386F0101010138671CEF17F01EEF17F02A
:102E38002EEF17F00101396F0C0E01010101376FF8
:102E48000101395135C1E9FF36C1EAFF000EEF6EC5
:102E580064EF17F00C0E01010101386136EF17F02D
:102E680038EF17F042EF17F038C137F135C1E9FFF5
:102E780036C1EAFF000EEF6E64EF17F001010101A1
:102E880038510C0AD8A44BEF17F04DEF17F057EF55
:102E980017F038C137F135C1E9FF36C1EAFF010E35
:102EA800EF6E64EF17F0010101013851F40F0101D1
:102EB8000101376F35C1E9FF36C1EAFF010EEF6E38
:102EC80037C143F1EBEC19F06AEF17F0120030C18B
:102ED800E9FF31C1EAFF000EEF6E0101346F800E89
:102EE80001010101336F01013451B8EF17F089EF87
:102EF80017F089800950D8B484EF17F086EF17F0DF
:102F080089EF17F0000EC4EF17F080B48EEF17F0BA
:102F180090EF17F07DEF17F089908DEC11F001011B
:102F28000101326F0101010132510C0BD8B49FEF3E
:102F380017F0A1EF17F0A4EF17F0000EC4EF17F089
:102F48000101010132A3ABEF17F0ADEF17F0B5EFB8
:102F580017F030C1E9FF31C1EAFF01010101335126
:102F6800EF120101D8903333010101013367BFEF3C
:102F780017F0C1EF17F07BEF17F0010EC4EF17F051
:102F880012000600EACF5FF1E1CF60F1E2CF61F114
:102F9800D9CF62F1DACF63F1F3CF64F1F4CF65F101
:102FA800F6CF66F1F7CF67F1F8CF68F1F5CF69F1A1
:102FB8009EA0E1EF17F0E3EF17F0FBEF17F0CD90CD
:102FC8009E90570ECE6E9E0ECF6E0B4A0C2AEF0EB9
:102FD8000B5C020E0C58D8A0F4EF17F0F6EF17F0C0
:102FE800FAEF17F0010E096EFBEF17F0CD8069C1FB
:102FF800F5FF68C1F8FF67C1F7FF66C1F6FF65C155
:10300800F4FF64C1F3FF63C1DAFF62C1D9FF61C194
:10301800E2FF60C1E1FF5FC1EAFF5EC1E9FF5DC198
:10302800FBFF5CC1FAFF1100EBEC1AF0000E076E13
:10303800000E0A6E000E086E0101096F000E0101F4
:103048000101086F01010951010E01010101086523
:1030580030EF18F032EF18F034EF18F069EF18F08D
:1030680008C148F10101096F000E01010101476F14
:103078000101095101010A6F3F0E01010101466F6B
:1030880001010A518FEC1AF008C148F10101096FDA
:10309800000E01010101476F0101095101010A6F89
:1030A800C00E01010101466F01010A518FEC1AF0AF
:1030B80001010101082B010E01010101086567EFFB
:1030C80018F069EF18F034EF18F01200000E010143
:1030D80001010E6F000E01010F6F88EF18F001015A
:1030E800116F640E01010101106F010111517FEF91
:1030F80018F07FEF18F001010101102F7DEF18F093
:10310800010101010E4B0F2B0A0E01010101556F40
:10311800000E0101566F0CC153F10DC154F1A9EC19
:1031280018F0010101015351010101010E5D010176
:1031380001015451010101010F59D8A0A6EF18F05F
:10314800A8EF18F073EF18F01200000E010101014A
:10315800576F000E0101586F0101010153A1B7EF2C
:1031680018F0B9EF18F0C5EF18F001010101555139
:103178000101010157270101010156510101010116
:1031880058230101D8900101553701015637010133
:10319800D890010154330101533301010101545105
:1031A8005311D8A4DAEF18F0DCEF18F0B0EF18F0EC
:1031B80057C153F158C154F1E2EF18F0120043C15E
:1031C80047F144C148F1EDEF18F001010101474B07
:1031D800482B47C1E9FF48C1EAFFEF50D8A4F7EFF1
:1031E80018F0F9EF18F0E9EF18F0FBEF18F001010B
:1031F80045C1E9FF010146C1EAFF01010101454B53
:10320800462B010147C1E1FF010148C1E2FF01016D
:103218000101474B482BEFCFE7FFE750D8A417EF42
:1032280019F019EF19F0F9EF18F01BEF19F0120067
:103238000101396F000E01010101376F0101395198
:1032480092880101396F010E01010101386F0101F6
:10325800395145EF19F0898A80A835EF19F037EF11
:1032680019F03DEF19F00101010138510101010187
:103278003713C3EC1BF0899AC3EC1BF00101D890FB
:1032880038370101010138674CEF19F04EEF19F09A
:103298002FEF19F001010101375153EF19F0120016
:1032A80071EF19F0010101013451F66EE96E020E59
:1032B800EA6E010101013551EA6403D0EA6EEF506C
:1032C80003D0F76E0800F55001010101366FC8EC14
:1032D80014F001010101344B352B01010101345176
:1032E800F66EE96E020EEA6E010101013551EA64DB
:1032F80003D0EA6EEF5003D0F76E0800F5500009CE
:10330800D8A489EF19F08BEF19F056EF19F01200D5
:1033180092980101396F010E01010101386F010115
:103328003951B2EF19F001010101375101010101D1
:1033380038150009D8B4A3EF19F0A5EF19F0A8EFD4
:1033480019F08988A9EF19F08998898AC3EC1BF0CC
:10335800899AC3EC1BF00101D890383701010101AB
:103368003867B9EF19F0BBEF19F097EF19F01200B1
:103378000AC110F10BC111F108C10EF109C10FF119
:10338800D8EF19F010C1E9FF11C1EAFF0EC1E1FF42
:103398000FC1E2FFEFCFE7FF01010101104B112B35
:1033A800010101010E4B0F2B010101010C07D8A0EF
:1033B8000D0701010C29D8B40D29D8A4E6EF19F09E
:1033C800E8EF19F0C6EF19F0EAEF19F012000A0E4B
:1033D80001010101556F000E0101566F0101010144
:1033E80043C153F101010101546B9AEC13F053C12D
:1033F80044F154C145F10A0E01010101556F000E57
:103408000101566F0101010143C153F1010101019D
:10341800546B4AEC12F0010101015339F00B010120
:10342800442517EF1AF0120043C147F144C148F18F
:1034380020EF1AF020EF1AF0010145C1F6FF010153
:1034480046C1F7FF01010101454B462B010147C168
:10345800E9FF010148C1EAFF01010101474B482B7F
:103468000800F5CFEFFFEF50D8A43DEF1AF03FEF7B
:103478001AF01EEF1AF041EF1AF0120050EF1AF08E
:1034880089800950D8B44BEF1AF04DEF1AF050EF7D
:103498001AF0000E68EF1AF080B455EF1AF057EFE3
:1034A8001AF044EF1AF089908DEC11F0040AD8A4B0
:1034B80060EF1AF062EF1AF065EF1AF0010E68EF8C
:1034C8001AF0000E68EF1AF0120035C108F03F0E2E
:1034D80001010101346573EF1AF075EF1AF07EEF00
:1034E8001AF0010E076E010101013451C00F0A6E76
:1034F80082EF1AF0000E076E34C10AF007C044F1DB
:1035080034C143F14DEC1BF007C044F135C143F120
:103518001DEC1BF0120048C149F1B1EC1AF0000E85
:10352800946E8A980101010147A101D08A860101A0
:10353800010147B101D08A9648C14BF18AEC1BF0D2
:1035480046C18BFF8A8AC3EC1BF08A9AC3EC1BF036
:1035580048C14BF178EC1BF0120094688A968A886F
:1035680049C14BF18AEC1BF08A8AC3EC1BF082CF6D
:103578004AF18A9AC3EC1BF049C14BF178EC1BF075
:10358800010101014A51900BD8A4CDEF1AF0CFEFF9
:103598001AF0B1EF1AF01200DEEF1AF08980095024
:1035A800D8B4D9EF1AF0DBEF1AF0DEEF1AF0080EF4
:1035B800EAEF1AF080B4E3EF1AF0E5EF1AF0D2EF71
:1035C8001AF089908DEC11F0EAEF1AF01200899246
:1035D8008A9A8A968A888A908A92050E0101010140
:1035E8000C6F000E01010D6F6AEC18F08982050E50
:1035F800010101010C6F000E01010D6F6AEC18F05A
:1036080012008990D09ED58CD59AD596D580D58232
:10361800D5840B000E00F29AF294D58ECD90CD9EF3
:10362800300ECD12CD96CD929E909D80F28EF28C6A
:10363800120044C149F1B1EC1AF044C148F101014A
:10364800456F000E01010101476F0101455101015C
:1036580001014351B80901010101466F8FEC1AF0CD
:10366800120043C145F1F00E01014517010145392A
:103678000F0B0A0DF3CF44F10101010143510F0B68
:103688000101010144270101010144514CEF1BF0E4
:10369800120044C149F1B1EC1AF044C148F10101EA
:1036A800456F000E01010101476F010145510101FC
:1036B80001014351400901010101466F8FEC1AF0E5
:1036C8001200BFEC1BF035C137F18CEC19F01CEC83
:1036D80019F001010101366FBBEC1BF0010101017A
:1036E800365177EF1BF0120080EF1BF08A9089EFBC
:1036F8001BF08A9289EF1BF0010101014B51000A6E
:10370800F5E0010AF6E089EF1BF0120092EF1BF0DA
:103718008A809BEF1BF08A829BEF1BF0010101015D
:103728004B51000AF5E0010AF6E09BEF1BF012008E
:103738009E90570ECE6E9E0ECF6E000E096E000E36
:103748000B6E000E0C6ECD801200BFEC1BF035C165
:1037580037F18CEC19F036C137F18CEC19F0BBEC71
:103768001BF01200899A9298899889961200899676
:10377800C3EC1BF012008986C3EC1BF0120000F0AA
:0237880012002D
:1039F20000000000000000005F0000000007000758
:103A02000000147F147F1400242A7F2A120023133B
:103A12000864620036495522500000050300000088
:103A2200001C224100000041221C0000082A1C2A1E
:103A3200080008083E08080000503000000008088E
:103A420008080800003030000000201008040200BE
:103A52003E5149453E0000427F40000042615149CB
:103A620046002141454B31001814127F10002745B2
:103A7200454539003C4A49493000017109050300B6
:103A8200364949493600064949291E0000363600A2
:103A920000000056360000000008142241001414F1
:103AA20014141400412214080000020151090600F6
:103AB200324979413E007E1111117E007F49494908
:103AC20036003E41414122007F4141221C007F4994
:103AD200494941007F09090101003E41415132003B
:103AE2007F0808087F0000417F4100002040413FDD
:103AF20001007F08142241007F40404040007F02C5
:103B020004027F007F0408107F003E4141413E00D5
:103B12007F09090906003E4151215E007F091929EA
:103B2200460046494949310001017F0101003F40F9
:103B320040403F001F2040201F007F2018207F00B0
:103B420063140814630003047804030061514945B7
:103B5200430000007F41410002040810200041415F
:103B62007F00000004020102040040404040400087
:103B72000001020400002054545478007F48444459
:103B82003800384444442000384444487F003854C4
:103B920054541800087E09010200081454543C00D1
:103BA2007F080404780000447D4000002040443D2A
:103BB2000000007F1028440000417F4000007C0488
:103BC200180478007C08040478003844444438001F
:103BD2007C1414140800081414187C007C080404D3
:103BE2000800485454542000043F444020003C4004
:103BF20040207C001C2040201C003C4030403C0007
:103C02004428102844000C5050503C004464544C4A
:103C1200440000083641000000007F00000000411F
:103C22003608000008082A1C0800081C2A08080098
:103C32004A616E7561727900000046656272756153
:103C4200727900004D6172636800000000004170EB
:103C520072696C00000000004D61790000000000F4
:103C620000004A756E650000000000004A756C791C
:103C720000000000000041756775737400000000C9
:103C820053657074656D626572004F63746F62652F
:103C9200720000004E6F76656D62657200004465C9
:103CA20063656D62657200004D6F6E64617900003C
:103CB2000000005475657364617900000000576567
:103CC200646E65736461790000546875727364612F
:103CD20079000000467269646179000000000053B7
:103CE2006174757264617900000053756E64617964
:103CF200000000000041746C616E7469630000454D
:103D020061737465726E00000043656E7472616C5B
:103D12000000004D6F756E7461696E000050616342
:103D220069666963000000416C61736B616E00003B
:103D320000486177616969616E0000000000001F40
:103D4200001F003B003C005A005B0078007900979E
:103D5200009800B500B600D400D500F300F40011BD
:103D6200011201300131014E014F016D016E01005E
:103D720000C0F83F073FF8C0000000FFFF0FFFC080
:103D820000C0FE0FFFFF303E1F03030303031F3E6D
:103D920030003F3F00013F383F01003F3F00FFFF3F
:103DA200838383C7FE7C0000FFFF0FFFC000C0FEBD
:103DB2000FFFFF00003F3F01010101000000003F33
:103DC2003F00013F383F01003F3F00C0F8FCFE3F8B
:103DD2000F0F0F3FFEFCF8C0FFFFFFFF00000000C7
:103DE20000FFFFFFFF010F1F3F7E7878787E3F1FA5
:103DF2000F0100E0F0F0783CFEFFFFFF0000000042
:103E02000100000000FFFFFFFF00000000000000B3
:103E120000007F7F7F7F000000707C7E7E1F0F0F7F
:103E22000F1FFEFEFCF000000080C0E0F0F87E3FB5
:103E32001F0F01787C7E7F7F777170707070707059
:103E420060787E7E1F0F0F0F1FFEFEFCF000000049
:103E520000001E1E1E3FFFFFF3E0030F3F3F7C7872
:103E620078787C3F3F1F070000000080E0F87CFF6D
:103E7200FFFFFF00E0F0FCFFCFC7C1C0FFFFFFFF65
:103E8200C003030303030303037F7F7F7F0300F861
:103E9200FFFFFF0F8F8F8F0F0F0F001C1F1F0F07CA
:103EA2000707070FFFFFFEF8030F3F3F7C78787884
:103EB2007C3F1F0F03C0F0FCFE3E0F0F0F1F3F3E63
:103EC2003C30FFFFFFFF1E0F0F0F1FFEFEFCF00135
:103ED2000F1F3F7C7878787C3F3F1F070F0F0F0F33
:103EE2000F0F8FEFFFFF7F1F0F000000C0F8FEFFD4
:103EF2003F070100000000007C7F7F7F030000007D
:103F0200000000F8FCFEFE1F0F0F0F1FFEFEFCF864
:103F1200C0F3FBFF3F1E1E1E3FFFFFF3C0071F3F04
:103F22003F7C7878787C3F3F1F07F0FCFEFE1F0F36
:103F32000F0F1FFEFCF8C0071F3F3F7C7878783CCC
:103F4200FFFFFFFF061E3E7E7C7878783E3F1F070C
:103F5200010000000000000000000000000000005E
:103F6200000000000000000000000000000000004F
:103F72000000000000000000414454004544540089
:103F8200434454004D445400504454004B445400A4
:103F92004844540041535400455354004353540081
:103FA2004D535400505354004B5354004853540043
:103FB2004C6173742053796E632054696D65733A52
:103FC200200053656C6563742054696D65205A6FD7
:103FD2006E653A00007878787800000000000000F2
:103FE200000F0F0F0F0053796E63696E67205570D3
:0E3FF2002E2E2E00202020002D3E200000004C
:020000040030CA
:0A000000FF08181EFF8181FF0FC0EA
:00000001FF
